:1000000099C30000B3C30000B1C3000057C500008E
:100010005FC50000ABC30000A9C30000A7C3000078
:10002000A5C30000A3C30000A1C30000BCC500001D
:100030009DC300009BC3000099C3000097C300004C
:1000400065C4000093C300000C944C0D8FC30000E6
:100050008DC300008BC3000089C3000087C300006C
:1000600085C3000083C3000081C300007FC300007C
:100070007DC300007BC3000079C3000077C300008C
:1000800075C3000073C3000071C300006FC300009C
:100090006DC300006BC3000069C3000067C30000AC
:1000A00065C3000063C3000061C300005FC30000BC
:1000B0005DC300006E616E00696E660000407A10DC
:1000C000F35A00A0724E18090010A5D4E80000E809
:1000D0007648170000E40B54020000CA9A3B000067
:1000E00000E1F505000080969800000040420F00F6
:1000F0000000A08601000000102700000000E803B7
:10010000000000006400000000000A000000000081
:100110000100000000002C76D888DC674F0823DF40
:10012000C1DFAE59E1B1B796E5E3E453C63AE65113
:10013000997696E8E6C28426EB898C9B62ED407C3A
:100140006FFCEFBC9C9F40F2BAA56FA5F490055AD6
:100150002AF75C936B6CF9676DC11BFCE0E40D47FB
:10016000FEF520E6B500D0ED902E0300943577051E
:100170000080841E080000204E0A000000C80C33D6
:100180003333330F986E12831141EF8D2114893B65
:10019000E65516CFFEE6DB18D1844B381BF77C1DE5
:1001A000901DA4BBE424203284725E228100C9F138
:1001B00024ECA1E53D274E414E494E495459494E44
:1001C00046CDCCCC3D0AD7233C17B7D13877CC2BC2
:1001D000329595E6241FB14F0A000020410000C867
:1001E0004200401C4620BCBE4CCA1B0E5AAEC59DE8
:1001F00074434F4E4E454354454400535953543A6B
:100200004552523F004D65726B7572204D6F746F91
:100210007220636F6E74726F6C6C657220627920ED
:100220005374616E69736C6176204D61736C616E9D
:100230002056312E302C204A616E20203120323061
:1002400032350A002A49444E3F00310A002A4F50F5
:10025000433F00535953543A4545534156450025B1
:100260002E31660A004D4F543A4143433F004D4FF3
:10027000543A414343203C6163633E202D20616C2E
:100280006C6F7765642072616E67652069732031D9
:10029000303020746F20323030302072706D2F7308
:1002A00021004D4F543A414343203C6163633E205B
:1002B0002D206D697373696E6720616363656C657A
:1002C000726174696F6E2076616C7565205B727007
:1002D0006D2F735D21004D4F543A41434300257506
:1002E0000A00534C4545503A54494D454F55543FEB
:1002F00000534C4545503A54494D454F5554203CC8
:1003000074696D656F75743E202D206D6973736916
:100310006E672074696D656F75742076616C7565A4
:10032000205B735D2100534C4545503A54494D457F
:100330004F555400534C45455000444952203C64AD
:100340006972656374696F6E3E202D20696E7661F7
:100350006C696420646972656374696F6E2076618C
:100360006C75652120557365204357206F722043BB
:1003700043572E0043435700435700444952203C03
:10038000646972656374696F6E3E202D206D6973B8
:1003900073696E6720646972656374696F6E207635
:1003A000616C756521004449520053544152540018
:1003B00053544F5000252E31660A00535045454492
:1003C0003A4C494D49543F0053504545443A4C49F5
:1003D0004D4954203C6C696D69743E202D20616C40
:1003E0006C6F7765642072616E6765206973203178
:1003F00020746F203530302072706D21004D4F54C5
:100400003A414343203C6163633E202D206D697374
:1004100073696E6720616363656C65726174696F8F
:100420006E2076616C7565205B72706D2F735D2137
:100430000053504545443A4C494D495400252E310E
:10044000660A0053504545443A5345543F00252E13
:1004500031660A0053504545443F005350454544DA
:10046000203C73706565643E202D206D697373694F
:100470006E672073706565642076616C7565210018
:10048000535045454400252E30660A0053595354B5
:100490003A54454D503F00252E32660A00535953B9
:1004A000543A564D4F4E3F00007F037F067F097F31
:1004B0000C7E107E137E167D197D1C7C1F7B227A9C
:1004C000257A28792B782E76317533743673397105
:1004D0003C703F6F416D446B476A49684C664E649F
:1004E00051625360555E585C5A5A5C585E55605371
:1004F0006251644E664C68496A476B446D416F3F78
:10050000703C7139733674337531762E782B7928B7
:100510007A257A227B1F7C1C7D197D167E137E1026
:100520007E0C7F097F067F037F007FFD7FFA7FF7C8
:100530007EF47EF07EED7DEA7DE77CE47BE17ADE91
:100540007ADB79D878D576D275CF74CD73CA71C776
:1005500070C46FC16DBF6BBC6AB968B766B464B272
:1005600062AF60AD5EAB5CA85AA658A455A253A07A
:10057000519E4E9C4C9A49984796449541933F9181
:100580003C90398F368D338C318B2E8A2B8828877F
:10059000258622861F851C84198316831382108268
:1005A0000C820981068103810081FD81FA81F78136
:1005B000F482F082ED82EA83E783E484E185DE86DB
:1005C000DB86D887D588D28ACF8BCD8CCA8DC78F52
:1005D000C490C191BF93BC95B996B798B49AB29C98
:1005E000AF9EADA0ABA2A8A4A6A6A4A8A2ABA0ADA6
:1005F0009EAF9CB29AB498B796B995BC93BF91C17F
:1006000090C48FC78DCA8CCD8BCF8AD288D587D81E
:1006100086DB86DE85E184E483E783EA82ED82F08F
:1006200082F481F781FA81FD8100810381068109CD
:10063000820C8210821383168319841C851F8622E4
:1006400086258728882B8A2E8B318C338D368F39DF
:10065000903C913F93419544964798499A4C9C4EC3
:100660009E51A053A255A458A65AA85CAB5EAD609B
:10067000AF62B264B466B768B96ABC6BBF6DC16F74
:10068000C470C771CA73CD74CF75D276D578D87956
:10069000DB7ADE7AE17BE47CE77DEA7DED7EF07E4D
:1006A000F47EF77FFA7FFD7F0A00302C204E6F200A
:1006B0006572726F722E002D3235382C20454550F0
:1006C000524F4D2077726974652070726F74656344
:1006D0007465642E002D3130392C204D6973736997
:1006E0006E6720706172616D65746572732E002D86
:1006F0003130342C2057726F6E6720706172616DDB
:10070000657465722074797065206F722076616CF3
:1007100075652E002D3131332C20556E6465666968
:100720006E656420636F6D6D616E642068656164E1
:1007300065722E0011241FBECFEFD8E0DEBFCDBF03
:1007400011E0A0E0B1E0E4E0F0E302C005900D921A
:10075000A230B107D9F722E0A2E0B1E001C01D92BA
:10076000A138B207E1F7BCD30C94001849CC4198EA
:10077000409A089590917A00892F807194FF5BC010
:1007800080917C008F70873081F480917800909107
:1007900079002091140130911501820F931F9093DD
:1007A00015018093140188E011C0883079F480919C
:1007B0007800909179002091120130911301820FFD
:1007C000931F909313018093120187E09091000191
:1007D000915019F09093000123C090E29093000192
:1007E0008730C1F420911401309115013093A2019A
:1007F0002093A10110921501109214012091120171
:10080000309113013093A4012093A301109213019E
:100810001092120190917C00907F892B80937C0034
:1008200080917A00806180937A0080917A00806460
:1008300080937A0081E008950F931F93CF93DF9305
:100840000091A1011091A201C091A501D091A60132
:10085000BE0180E090E00E94B10F9B01AC010E94BC
:10086000CA10811104C081E00C171D0708F080E058
:10087000DF91CF911F910F9108956091A301709125
:10088000A40185E0769567958A95E1F780E090E090
:100890000E94B10F20E030E04CE853E40C94AF0E1E
:1008A00087EC80937C00EAE7F0E087E88083109291
:1008B0007B00808180648083E1EAF1E01182108214
:1008C0001382128215821482089583EA84BD81E026
:1008D00085BD80936E008FE787BD88BD569A559A77
:1008E00053985B98EDEAF1E0148211821082138232
:1008F0001282089583EA84BD5B9A08951092B10133
:100900005B98089514BC5E985D9808951F920F92AD
:100910000FB60F9211242F933F934F938F939F9372
:10092000AF93BF93EF93FF93ADEAB1E0ED91FC91EC
:10093000119712968D919C911397E80FF91F1196BC
:10094000FC93EE93EF2FFF27EE0FFF1FE855FB4FB1
:1009500044913196249114963C914303C001112493
:1009600080E8890F87BD2303F001112480E88F0FF1
:1009700088BDFF91EF91BF91AF919F918F914F9162
:100980003F912F910F900FBE0F901F901895CF920F
:10099000DF92EF92FF92CF93DF93EC012C8D3D8D90
:1009A0004E8D5F8D68A179A18AA19BA10E94AF0E97
:1009B0006B017C012C893D894E895F89688D798D19
:1009C0008A8D9B8D0E94AF0E9B01AC01C701B601C1
:1009D0000E94180F6CA37DA38EA39FA3DF91CF91DC
:1009E000FF90EF90DF90CF900895AF92BF92CF929B
:1009F000DF92EF92FF920F931F93CF93DF93EC015F
:100A0000EC8CFD8C0E8D1F8DCB01BA019F772C894C
:100A10003D894E895F890E94AF0E2CA13DA14EA158
:100A20005FA10E9467109701A8010E94B00E5B01B0
:100A30006C019B01AC01B701C8010E94631018163C
:100A400074F0E8A0F9A00AA11BA19701A801B501C3
:100A5000C6010E946310181614F075018601B701D3
:100A6000C8010E94850F862FDF91CF911F910F91B2
:100A7000FF90EF90DF90CF90BF90AF9008953A989D
:100A80003C983B98429A449A439A209857982298C7
:100A90002198289A5F9A2A9A299A83E0809368007D
:100AA000EBE6F0E0808184608083ECE6F0E080811A
:100AB0008460808308954498439808951F920F920C
:100AC0000FB60F9211240F900FBE0F901F90189524
:100AD0001F920F920FB60F9211240F900FBE0F901E
:100AE0001F901895399A389A4198409810929C0115
:100AF0000895811102C0419806C0813009F437CEB3
:100B0000823011F4419A40980895CF93DF9300D03A
:100B1000CDB7DEB789836A83809111018F3F19F0C9
:100B20008F5F809311018A8184FF26C0209111017B
:100B300082E390E0821B91091816190614F081E0F7
:100B400090E095958795959587951816190614F058
:100B500081E090E010921101298125FF03C0919559
:100B6000819591099091AB01890F8093AB018091A0
:100B7000AC0180648093AC010F900F90DF91CF9116
:100B80000895F89490939F0180939E01789408951E
:100B9000F89420919E0130919F01789481E0232B5D
:100BA00009F080E0089578941F920F920FB60F928B
:100BB00011242F933F934F935F936F937F938F9362
:100BC0009F93AF93BF93CF93EF93FF9383B18170C4
:100BD0004F9980681A9B02C0846001C08B7F199B6B
:100BE00002C0826001C08D7F329B02C0886001C05C
:100BF000877F349B02C0806101C08F7E339B02C01F
:100C0000806201C08F7D6091100168279091A801DA
:100C1000C82FC0952C2F2623922B9093A801C09308
:100C2000A90180931001682370DF80910F0181502A
:100C300019F080930F0160C08AE080930F018091CA
:100C4000A70181608093A701E7E0F1E028E080E060
:100C50008695C0FF0AC09081973410F49F5F9083FF
:100C60009081963419F4806801C01082C695215095
:100C700031962111EDCF9091AA01892B8093AA0181
:100C800080910601815019F0809306010AC085E029
:100C90008093060181E090910501911180E080939D
:100CA000050180919D01882329F080919D0181504B
:100CB00080939D0180910401815019F0809304017B
:100CC0001BC084E68093040180919E0190919F0156
:100CD000892B49F080919E0190919F0101979093FB
:100CE0009F0180939E018091A001882329F080912B
:100CF000A00181508093A00180919C01813011F46A
:100D000036DD34C080919C01823011F482E02DC028
:100D100080919C01843021F4809105018111F6CFEE
:100D200080919C01833021F4809105018111E8CFED
:100D300080919C01853021F4809105018111E0CFE3
:100D400080919C01853021F4809105018823F1F286
:100D500080919C01863021F480910F018930B0F69A
:100D600080919C01863061F280E0C3DEFF91EF91BB
:100D7000CF91BF91AF919F918F917F916F915F9133
:100D80004F913F912F910F900FBE0F901F9018958C
:100D90001092800089E0809381008FE19EE490931F
:100DA00089008093880082E080936F001092A701F1
:100DB00010929D0110929F0110929E010895FB01D7
:100DC000460F571FE417F507F9F06191292F3327D4
:100DD0002627B901A4E076956795AA95E1F726271D
:100DE0003727982F882782279327B901762F6627E0
:100DF0007295707F86279727B5E0220F331FBA952B
:100E0000E1F782279327DECF0895EF92FF920F93A9
:100E10001F93CF93DF93CDB7DEB72C970FB6F8941F
:100E2000DEBF0FBECDBF8C014AE050E060E070E055
:100E3000CE0101960E94C0174AE050E0BE016F5FEC
:100E40007F4F8FEF9FEFBBDF7C0142E050E06AE015
:100E500070E0CE010B960E94C0178B859C85E8162A
:100E6000F90651F48AE0FE013196D80101900D9205
:100E70008A95E1F780E001C081E02C960FB6F894E6
:100E8000DEBF0FBECDBFDF91CF911F910F91FF90BD
:100E9000EF9008950F931F93CF93DF9300D0CDB7BA
:100EA000DEB78C014AE050E060E070E00E94D017AD
:100EB0004AE050E0B8018FEF9FEF81DF9A8389838A
:100EC00042E050E06AE070E0CE0101960E94D01747
:100ED00080E00F900F90DF91CF911F910F910895B7
:100EE000CF93DF93CDB7DEB7C554D1400FB6F8949A
:100EF000DEBF0FBECDBF84B7CF5BDE4F8883C1544A
:100F0000D14014BE0FB6F894A89580916000886116
:100F100080936000109260000FBE14B817B81AB822
:100F2000CF5BDE4F8881C154D14082FF09C02FEFD3
:100F300084E39CE0215080409040E1F700C0000035
:100F400010929C01ADDC80EE93E49093A601809317
:100F5000A501BBDCE9D5CEDC92DDC4DD19DF7894D8
:100F6000C75FDE4F188219821A821B82C950D14096
:100F7000CB5EDE4F188219821A821B82C551D14086
:100F8000C35FDE4F188219821A821B82CD50D14076
:100F900080E090E0AAEFB3E4CF5EDE4F88839983D0
:100FA000AA83BB83C151D14080E090E0A7E8B3E4BD
:100FB000C75EDE4F88839983AA83BB83C951D14022
:100FC00040E050E064EB72E4CB5DDE4F4883598330
:100FD0006A837B83C552D14040E050E06FE773E401
:100FE000C75DDE4F488359836A837B83C952D140F2
:100FF00040E050E060E772E4C35EDE4F488359830F
:101000006A837B83CD51D14040E050E064E373E4D8
:10101000CF5DDE4F488359836A837B83C152D140C1
:101020002CE330E0CF5CDE4F39832883C153D140BD
:10103000C95CDE4F88839983AA83BB83C753D140A1
:10104000CE018F5C9E4FE1DE811120C0CD5CDE4F72
:1010500088819981AA81BB81C353D140CF5EDE4F85
:1010600088839983AA83BB83C151D140C95CDE4F79
:1010700088819981AA81BB81C753D140C75EDE4F69
:1010800088839983AA83BB83C951D140CE01875FEE
:101090009E4F7DDCCF5CDE4F88819981C153D1406A
:1010A00070DD00E010E066DB080F111D003D27E059
:1010B0001207C8F38FE5882E82E0982E7E0189EC16
:1010C000E80EF11CBE01655C7E4FCE01019651D544
:1010D000882309F466C289E180939D016DE974E07B
:1010E000CE0101960E945B15892B99F46091A101B4
:1010F0007091A20180E090E034D723EA30E74DE719
:1011000059E3E5D79F938F937F936F9387E994E09B
:1011100051C06CE874E0CE0101960E945B15892BEA
:1011200041F4ABDB9F938F937F936F9386E894E0BA
:1011300041C060E874E0CE0101960E945B15892BE6
:10114000B9F4C55CDE4F88819981CB53D1400097BB
:1011500021F441E06BE574E0E1C00E946314C75FD5
:10116000DE4F688379838A839B83C950D1401BC239
:1011700064E574E0CE0101960E945B15892BE9F4C9
:10118000C85EDE4F8881C851D1408F93C95EDE4F63
:101190008881C751D1408F93CA5EDE4F8881C65186
:1011A000D1408F93CB5EDE4F8881C551D1408F9364
:1011B0008EE494E09F938F9385C163E474E0CE0145
:1011C00001960E945B15892BD9F4C05FDE4F8881A0
:1011D000C051D1408F93C15FDE4F8881CF50D14045
:1011E0008F93C25FDE4F8881CE50D1408F93C35F13
:1011F000DE4F8881CD50D1408F938DE394E0DACFDC
:1012000061E374E0CE0101960E945B15892B69F5BC
:10121000C55CDE4F88819981CB53D140009721F482
:1012200041E06DEF73E07AC00E9463142B013C0132
:1012300020E030E040E85FE3F7D587FD09C020E01B
:1012400030E04AEF53E4C301B2013DD7181624F44D
:1012500041E068EC73E008C1C75EDE4F4882598206
:101260006A827B82C951D1409EC16BEB73E0CE0193
:1012700001960E945B15892BD9F4C45EDE4F8881EC
:10128000CC51D1408F93C55EDE4F8881CB51D14088
:101290008F93C65EDE4F8881CA51D1408F93C75E5F
:1012A000DE4F8881C951D1408F9385EB93E082CF87
:1012B00060EB73E0CE0101960E945B15892B49F427
:1012C000C75FDE4F188219821A821B82C950D14033
:1012D0006AC16AEA73E0CE0101960E945B15892B10
:1012E00049F4C35FDE4F88819981AA81BB81CD50CB
:1012F000D14027C066EA73E0CE0101960E945B15DB
:10130000892BF1F5C55CDE4F08811981CB53D140A3
:101310000115110531F441E06BE773E083E99FEFBC
:101320003EC168E773E0C8010E945B15892B91F408
:10133000C35FDE4F88819981AA81BB81CD50D140A6
:10134000BF77C75FDE4F88839983AA83BB83C95069
:10135000D14029C164E773E0C8010E945B15892B65
:1013600059F4C35FDE4F88819981AA81BB81CD503A
:10137000D140BF77B058E5CF41E06AE373E074C075
:1013800064E373E0CE0101960E945B15892B21F482
:1013900080E090E0F6DB05C166E273E0CE010196E5
:1013A0000E945B15892BA9F4C55CDE4F8881998169
:1013B000CB53D140009721F441E061EF72E0AECF12
:1013C0000E946614CF5CDE4F99838883C153D1405D
:1013D000EAC062EE72E0CE0101960E945B15892B95
:1013E000C1F4CE5CDE4F8881C253D1408F93CF5C75
:1013F000DE4F8881C153D1408F938EED92E09F9351
:101400008F931F9280E48F93FF92EF920E94CD15ED
:1014100060C066ED72E0CE0101960E945B15892BDB
:1014200079F5C55CDE4F88819981CB53D140009717
:1014300021F441E062EA72E071CF0E9463142B0153
:101440003C0120E030E048EC52E4EED487FD09C0D6
:1014500020E030E04AEF54E4C301B20134D618165C
:1014600034F441E06EE672E088E99FEF98C0CF5E09
:10147000DE4F488259826A827B82C151D14093C03B
:1014800065E672E0CE0101960E945B15892B49F555
:10149000CC5EDE4F8881C451D1408F93CD5EDE4F4C
:1014A0008881C351D1408F93CE5EDE4F8881C25177
:1014B000D1408F93CF5EDE4F8881C151D1408F9351
:1014C0009F928F921F9280E48F93FF92EF920E94DF
:1014D000CD15C701D3D30FB6F894DEBF0FBECDBF75
:1014E00062C063E572E0CE0101960E945B15892B14
:1014F00029F5CF5EDE4F88819981AA81BB81C151D8
:10150000D140CD5CDE4F88839983AA83BB83C353CC
:10151000D140C75EDE4F88819981AA81BB81C951C4
:10152000D140C95CDE4F88839983AA83BB83C753AC
:10153000D140CE018F5C9E4FADDC35C06DE472E0D2
:10154000CE0101960E945B15892B19F48AE492E082
:101550000AC064E472E0CE0101960E945B15892BFB
:1015600021F485E092E073D31EC06BEF71E0CE01F1
:1015700001960E945B15892B21F442E060E070E047
:101580000CC061EF71E0CE0101960E945B15892BC2
:1015900051F045E0BE016F5F7F4F8FE89FEF79D339
:1015A00002C010E001C011E0E5D846D98823F1F06F
:1015B00083E080939C01C75FDE4F188219821A82F4
:1015C0001B82C950D1408091A00181110DC085E0DE
:1015D0008093A001809103018F5F8093030182308B
:1015E00018F080E090E0CDDA10E015C080919D0108
:1015F000882321F084E080939C010DC08091A0019C
:10160000882321F083E080939C01EECF82E08093D9
:101610009C0110920301C05CDE4F1882C054D1407F
:10162000F8948091A701C05CDE4F8883C054D140FC
:101630001092A7018091AC01C15CDE4F8883CF532B
:10164000D1401092AC018091A801C25CDE4F88832A
:10165000CE53D1401092A8018091AA01C35CDE4F05
:101660008883CD53D1401092AA016091AB011092B2
:10167000AB017894C25CDE4F8881CE53D14081119A
:1016800011E0C15CDE4F8881CF53D14086FF1FC07F
:10169000062E000C770B880B990B65D420E030E008
:1016A00040EA50E414D59B01AC01C75FDE4F68816E
:1016B00079818A819B81C950D14051D3C75FDE4F68
:1016C000688379838A839B83C950D14011E0C25CCF
:1016D000DE4F8881CE53D14080FF12C0C35FDE4F02
:1016E00088819981AA81BB81CD50D140BF77B05804
:1016F000C75FDE4F88839983AA83BB83C950D140DB
:10170000C25CDE4F8881CE53D14087FF11C0C35FDA
:10171000DE4F88819981AA81BB81CD50D140BF77AE
:10172000C75FDE4F88839983AA83BB83C950D140AA
:10173000C25CDE4F8881CE53D14082FF10C0C35FB0
:10174000DE4F88819981AA81BB81CD50D140C75F8E
:10175000DE4F88839983AA83BB83C950D140C25C82
:10176000DE4F8881CE53D14081FF08C0C75FDE4F76
:10177000188219821A821B82C950D140C35CDE4F85
:101780008881CD53D14081FF04C080E090E0F9D939
:1017900010E0C05CDE4F8881C054D14080FFF4C0AF
:1017A000C75FDE4FA880B980CA80DB80C950D140B6
:1017B000C75EDE4F488059806A807B80C951D14026
:1017C000A3019201C601B5017ED418165CF077FA28
:1017D000709477F87094A3019201C601B50124D3E7
:1017E00087FF08C0C75FDE4F488259826A827B82CA
:1017F000C950D140C75FDE4FB880C950D140C65FE5
:10180000DE4FC880CA50D140C55FDE4FD880CB5074
:10181000D140C45FDE4F0881CC50D14020E030E0A1
:10182000A9016B2D7C2D8D2D902FFED2882361F088
:101830008B2D9C2DAD2DB02FC35FDE4F88839983F8
:10184000AA83BB83CD50D1402AE037ED43E25CE36D
:10185000CF5EDE4F688179818A819B81C151D14001
:1018600036D4CE5BDE4F688379838A839B83C254F0
:10187000D140CB5EDE4F488059806A807B80C55165
:10188000D140A30192016B2D7C2D8D2D902F1BD467
:10189000A30192011816CCF4CE5BDE4F68817981EA
:1018A0008A819B81C254D1405BD2562E672E782EFE
:1018B000A92E262F372F482F592F6B2D7C2D8D2D9C
:1018C000902F01D418162CF121C06B2D7C2D8D2D5D
:1018D000902FAAD287FF29C0CE5BDE4F28813981A5
:1018E0004A815B81C254D140C301B20138D2562E25
:1018F000672E782EA92E262F372F482F592F6B2D84
:101900007C2D8D2D902F90D287FD03C05B2C36014E
:10191000A02E852D962DA72DBA2DCB5EDE4F888368
:101920009983AA83BB83C551D140CB5EDE4F4880EB
:1019300059806A807B80C551D140B301A201CE019C
:10194000875F9E4F52D8F8948093B1012CEF34EF0B
:1019500042E35FE3C301B201BAD3D2D27093B001C4
:101960006093AF01789401E020E030E0A901CB5E04
:10197000DE4F688179818A819B81C551D14054D2E3
:10198000811100E000930201112339F0CF5CDE4F9A
:1019900088819981C153D140F4D8FAD8882309F4B9
:1019A00091CB80910201811109C0C75FDE4F18827F
:1019B00019821A821B82C950D14084CB86E0809361
:1019C0009C0179D8D1D00E947E046091A1017091D0
:1019D000A20180E090E0C5D223EA30E74DE759E369
:1019E00076D320E030E040E050E46DD318161CF4CC
:1019F0000E94BA03EACF0E94820410929C011092C6
:101A00007A009FE32DE083E0915020408040E1F791
:101A100000C00000F89480E685BF80E485BF83B7EE
:101A2000817F846083BF83B7816083BF85B7806611
:101A300085BF8F7D85BF7894889583B78E7F83BF60
:101A400073D00E947A041BD80E94500480EE93E465
:101A50009093A6018093A50100E010E00E94BA03D4
:101A6000080F111D003D97E01907C0F3C75FDE4F57
:101A7000188219821A821B82C950D1401092A80183
:101A8000109203011092A001CF5CDE4F88819981F2
:101A9000C153D14076D816CB1F920F920FB60F923A
:101AA00011242F933F938F939F93EF93FF938091F4
:101AB000C1008F778093C1007894E091B301F091D9
:101AC000B4018091C600359B16C09F012F5F3F4F28
:101AD000808392E02D37390718F0E5EBF1E001C083
:101AE000F90110828A3011F08B3329F48091B20110
:101AF0008F5F8093B2018091C00087FDE2CFF093A9
:101B0000B401E093B301F8948091C10080688093A0
:101B1000C100FF91EF919F918F913F912F910F9075
:101B20000FBE0F901F9018955098509A3D98459869
:101B30001092C00088E98093C10086E08093C200C3
:101B400081E890E09093C5008093C400E5EBF1E05C
:101B50001082F093B401E093B301F0937E02E0931E
:101B60007D021092B20108951092C10058985998C0
:101B700008950F931F93CF93DF938C01F894809176
:101B8000B201789418160CF055C0D8011C92E0915F
:101B90007D02F0917E02EB011982188220E030E094
:101BA00090819032D1F4EB0148815981452B11F598
:101BB000AD014F5F5F4F1C9259834883CF01FC01F9
:101BC0000196A081A03239F4E5EBF1E0D2E08D3747
:101BD0009D07A8F3F3CFDA01E3CF9B3329F09A30C6
:101BE00019F09D3011F006C03F5F211119C01C9201
:101BF000119616C0222389F0F0937E02E0937D02B5
:101C0000F8948091B201831B8093B201789481E0B3
:101C1000F801908191110FC00DC09C93119601C0E5
:101C200021E0319682E0ED37F80708F4B9CFE5EB13
:101C3000F1E0B6CF80E0DF91CF911F910F91089531
:101C40009091C00095FFFCCF8093C6000895CF937C
:101C5000DF93FC018491EF012196882341F090915C
:101C6000C00090649093C000EBDFFE01F3CF809141
:101C7000C00086FFFCCFDF91CF910895CF93DF9313
:101C8000EC018991882311F0DBDFFBCFDF91CF914D
:101C90000895CF93DF93C42F40FF1BC09093990109
:101CA0008093980142FF0FC087E191E090939B01E0
:101CB00080939A0140E850E012D71092970181E09A
:101CC0008093160106C070939B0160939A01109255
:101CD0001601C1FF41C0809198019091990183390B
:101CE0002FEF9207B9F054F48E3F2EEF9207A9F030
:101CF0008F389F4FA9F484E197E011C088392FEF06
:101D0000920729F0892B61F48AEA96E008C08FEEE9
:101D100096E005C085ED96E002C087EB96E097DF80
:101D2000C0919A01D0919B01209759F080E288DF01
:101D300080911601882319F0CE01A0DF02C0CE01E8
:101D400086DF88EA96E083DF10929B0110929A0169
:101D50001092990110929801DF91CF9108955058F7
:101D6000BB27AA270ED075C166D130F06BD120F009
:101D700031F49F3F11F41EF45BC10EF4E095E7FBD4
:101D800051C1E92F77D180F3BA176207730784072F
:101D9000950718F071F49EF58FC10EF4E0950B2EA7
:101DA000BA2FA02D0B01B90190010C01CA01A001AD
:101DB0001124FF27591B99F0593F50F4503E68F108
:101DC0001A16F040A22F232F342F4427585FF3CF49
:101DD000469537952795A795F0405395C9F77EF41A
:101DE0001F16BA0B620B730B840BBAF09150A1F063
:101DF000FF0FBB1F661F771F881FC2F70EC0BA0FE9
:101E0000621F731F841F48F4879577956795B79570
:101E1000F7959E3F08F0B3CF9395880F08F0992768
:101E2000EE0F979587950895D9D008F481E008952D
:101E30000CD00FC107D140F0FED030F021F45F3F4D
:101E400019F0F0C0511139C1F3C014D198F399239E
:101E5000C9F35523B1F3951B550BBB27AA2762176E
:101E60007307840738F09F5F5F4F220F331F441FB3
:101E7000AA1FA9F333D00E2E3AF0E0E830D09150EB
:101E80005040E695001CCAF729D0FE2F27D0660FD8
:101E9000771F881FBB1F261737074807AB07B0E817
:101EA00009F0BB0B802DBF01FF2793585F4F2AF02D
:101EB0009E3F510568F0B6C000C15F3FECF3983E0D
:101EC000DCF3869577956795B795F7959F5FC9F78A
:101ED000880F911D9695879597F90895E1E0660F13
:101EE000771F881FBB1F621773078407BA0720F08C
:101EF000621B730B840BBA0BEE1F88F7E0950895F5
:101F000004D06894B111D9C00895BCD088F09F570F
:101F100090F0B92F9927B751A0F0D1F0660F771F35
:101F2000881F991F1AF0BA95C9F712C0B13081F015
:101F3000C3D0B1E00895C0C0672F782F8827B85F5D
:101F400039F0B93FCCF3869577956795B395D9F776
:101F50003EF490958095709561957F4F8F4F9F4F80
:101F60000895E89409C097FB3EF49095809570958C
:101F700061957F4F8F4F9F4F9923A9F0F92F96E9D5
:101F8000BB279395F695879577956795B795F1114A
:101F9000F8CFFAF4BB0F11F460FF1BC06F5F7F4FE7
:101FA0008F4F9F4F16C0882311F096E911C07723F9
:101FB00021F09EE8872F762F05C0662371F096E802
:101FC000862F70E060E02AF09A95660F771F881FD1
:101FD000DAF7880F9695879597F90895990F000875
:101FE000550FAA0BE0E8FEEF16161706E807F907EB
:101FF000C0F012161306E407F50798F0621B730B86
:10200000840B950B39F40A2661F0232B242B252B06
:1020100021F408950A2609F4A140A6958FEF811DA9
:10202000811D089597F99F6780E870E060E008954A
:102030009FEF80EC089500240A94161617061806E0
:102040000906089500240A941216130614060506BC
:102050000895092E0394000C11F4882352F0BB0F4D
:1020600040F4BF2B11F460FF04C06F5F7F4F8F4FB0
:102070009F4F089557FD9058440F551F59F05F3FEB
:1020800071F04795880F97FB991F61F09F3F79F09A
:1020900087950895121613061406551FF2CF46951C
:1020A000F1DF08C0161617061806991FF1CF86959E
:1020B0007105610508940895E894BB276627772782
:1020C000CB0197F908958ADF08F48FEF08950BD0BC
:1020D000C0CFB1DF28F0B6DF18F0952309F0A2CF0A
:1020E000A7CF1124EACFC6DFA0F3959FD1F3950FB8
:1020F00050E0551F629FF001729FBB27F00DB11D8C
:10210000639FAA27F00DB11DAA1F649F6627B00D1B
:10211000A11D661F829F2227B00DA11D621F739F04
:10212000B00DA11D621F839FA00D611D221F749F12
:102130003327A00D611D231F849F600D211D822F59
:10214000762F6A2F11249F5750408AF0E1F08823A0
:102150004AF0EE0FFF1FBB1F661F771F881F9150AD
:102160005040A9F79E3F510570F05CCFA6CF5F3F6E
:10217000ECF3983EDCF3869577956795B795F795E0
:10218000E7959F5FC1F7FE2B880F911D9695879568
:1021900097F9089523DF880B990B0895A0E1B0E02B
:1021A000E3EDF0E159C37C011B016A01FC011782D8
:1021B0001682838181FF2AC39E012F5F3F4F390121
:1021C000F7019381F10193FD859193FF81911F01A7
:1021D000882309F417C3853239F493FD859193FF61
:1021E00081911F01853231F4B70190E09AD45601F4
:1021F0006501E6CF10E0512C912CFFE1F915D8F0E4
:102200008B3279F038F4803279F08332A1F4F92DF1
:10221000F0612EC08D3261F0803369F4292D216088
:102220002DC0392D3260932E892D8460982E2AC0BE
:10223000E92DE86015C097FC2DC020ED280F2A304D
:1022400088F496FE06C03AE0139F200D1124122F49
:1022500019C08AE0589E200D1124522EE92DE0620B
:102260009E2E10C08E3231F496FCCCC2F92DF06453
:102270009F2E08C08C3621F4292D2068922E02C092
:10228000883641F4F10193FD859193FF81911F01FF
:102290008111B3CF9BEB980F933020F4992D90616F
:1022A000805E07C09BE9980F933008F059C1992DC3
:1022B0009F7E96FF16E09F73992E853619F49064E1
:1022C000992E08C0863621F4392F3068932E02C02B
:1022D0001111115097FE07C01C3350F4442443944D
:1022E000410E27E00BC0183038F027E017E005C09A
:1022F00027E09CE3492E02C0212F412C560184E0A7
:10230000A80EB11CF6016081718182819381042D38
:10231000A301F9D26C01F981FC87F0FF02C0F3FF41
:1023200006C091FC06C092FE06C000E205C00DE2A8
:1023300003C00BE201C000E08C858C7019F0011124
:1023400043C280C297FE10C04C0CFC85F4FF04C051
:102350008A81813309F44A94141474F528E0241511
:1023600078F588E0482E2CC096FC2AC0812F90E09A
:102370008C159D059CF03CEFC3163FEFD30674F01F
:10238000892D8068982E0AC0E2E0F0E0EC0FFD1F76
:10239000E10FF11D8081803319F411501111F4CF38
:1023A00097FE0EC044244394410E812F90E0C8163E
:1023B000D9062CF41C1904C04424439401C010E035
:1023C00097FE06C01C141D0434F4C601019605C016
:1023D00085E090E002C081E090E0011101961123B8
:1023E00031F0212F30E02F5F3F4F820F931F252DBB
:1023F00030E08217930714F4581A01C0512C892D2C
:10240000897041F4552031F0B70180E290E089D322
:102410005A94F8CF002321F0B701802F90E081D3A8
:1024200093FC08C0552031F0B70180E390E079D3E8
:102430005A94F8CF97FE4AC04601D7FE02C0812CBD
:10244000912CC60188199909F301E80FF91FFE873D
:10245000ED87960124193109388B2F87012F10E061
:102460001195019511093FEF8316930621F4B701E9
:102470008EE290E056D3C814D9044CF08F85988929
:102480008815990524F4ED85FE85818101C080E3DE
:10249000F1E08F1A91082D853E852F5F3F4F3E87D3
:1024A0002D878016910624F0B70190E03AD3DBCF58
:1024B000C814D90441F49A81963320F4953319F461
:1024C0003C8534FF81E3B70190E048C08A818133C5
:1024D00019F09C859F7E9C87B70190E022D3111153
:1024E00005C094FC16C085E690E015C0B7018EE2E9
:1024F00090E017D31E5F82E001E0080FF301E80FC0
:10250000F11D8081B70190E00CD3802F0113F4CF2F
:10251000E8CF85E490E0B70104D3D7FC06C0C1142E
:10252000D10441F4EC85E4FF05C0D194C194D108F5
:102530008DE201C08BE2B70190E0F3D280E32AE0A4
:10254000C216D1042CF08F5FFAE0CF1AD108F7CF72
:10255000B70190E0E6D2B701C601C096E2D249C108
:10256000833631F0833779F0833509F052C01FC0CC
:10257000560132E0A30EB11CF6018081898301E08F
:1025800010E0630111C05601F2E0AF0EB11CF6017C
:10259000C080D18096FE03C0612F70E002C06FEF53
:1025A0007FEFC601ABD28C01F92DFF7713C0560126
:1025B00022E0A20EB11CF601C080D18096FE03C0BD
:1025C000612F70E002C06FEF7FEFC6017DD28C01FA
:1025D000F92DF0689F2EF3FD18C0852D90E00817A7
:1025E000190798F4B70180E290E09BD25A94F5CF96
:1025F000F60197FC859197FE81916F01B70190E0FC
:1026000090D251105A94015011090115110581F70A
:10261000F0C0843611F0893659F5560197FE09C08D
:1026200024E0A20EB11CF601608171818281938148
:102630000AC0F2E0AF0EB11CF60160817181072E75
:10264000000C880B990BF92DFF769F2E97FF09C080
:1026500090958095709561957F4F8F4F9F4FF06853
:102660009F2E2AE030E0A301C5D2C82EC6183EC076
:10267000092D853721F40F7E2AE030E01DC0097F47
:102680008F3691F018F4883559F0BCC0803719F0B6
:10269000883711F0B7C0006104FF09C0046007C0AB
:1026A00094FE08C0066006C028E030E005C020E1C6
:1026B00030E002C020E132E0560107FF09C084E0AB
:1026C000A80EB11CF601608171818281938108C0DE
:1026D000F2E0AF0EB11CF6016081718180E090E004
:1026E000A30188D2C82EC6180F77902E96FE0BC075
:1026F000092D0E7FC11650F494FE0AC092FC08C04A
:10270000092D0E7E05C0DC2C092D03C0DC2C01C078
:10271000D12E04FF0DC0FE01EC0DF11D8081803330
:1027200011F4097E09C002FF06C0D394D39404C0FB
:10273000802F867809F0D39403FD10C000FF06C0F7
:102740001C2DD51478F4150D1D190CC0D51450F49A
:10275000B70180E290E0E5D1D394F8CFD51410F41E
:102760005D1801C0512C04FF0FC0B70180E390E059
:10277000D8D102FF16C001FD03C088E790E002C077
:1027800088E590E0B7010CC0802F867851F001FFFA
:1027900002C08BE201C080E207FD8DE2B70190E04C
:1027A000C0D1C11630F4B70180E390E0BAD1115026
:1027B000F8CFCA94F301EC0DF11D8081B70190E0D0
:1027C000B0D1C110F6CF15C0F4E0F51550F584E096
:1027D000581A93FE1EC0011125C02C8523FF27C067
:1027E00004EB10E0392D3071932EF80184918111A2
:1027F00021C0552009F4FCCCB70180E290E091D1D2
:102800005A94F7CFF7018681978123C08FEF9FEF0E
:1028100020C0B70180E290E084D15A945110F9CFE2
:10282000DACF512CB701802F90E07BD1D6CF08EBC7
:1028300010E0D8CF91108052B70190E072D10F5FB5
:102840001F4FD3CF23E0251510F483E0C1CF512CC7
:10285000C4CF6096E2E11CC02F923F924F925F92EC
:102860006F927F928F929F92AF92BF92CF92DF92A0
:10287000EF92FF920F931F93CF93DF93CDB7DEB705
:10288000CA1BDB0B0FB6F894DEBF0FBECDBF099499
:102890002A88398848885F846E847D848C849B84F0
:1028A000AA84B984C884DF80EE80FD800C811B81FE
:1028B000AA81B981CE0FD11D0FB6F894DEBF0FBE2D
:1028C000CDBFED01089566277727F2C1FC01882767
:1028D0009927E89421912032E9F3293010F02E3025
:1028E000C8F32B3239F02D3231F4689403C011D182
:1028F000820F911D219120532A30C8F31EF4909528
:1029000081959F4F0895283008F027E03327DA019A
:10291000990F311D87FD916000966105710539F4AD
:1029200032602E5F3D9330E32A95E1F708959F3F93
:1029300030F080387105610509F03C5F3C5F3D93E4
:10294000913008F08068911DDF93CF931F930F9310
:10295000FF92EF92192F987F9695E92F969596956D
:10296000E90FFF27EA5EFE4F99273327EE24FF2465
:10297000A701E70105900894079428F4360FE71E95
:10298000F81E491F511D660F771F881F991F069457
:10299000A1F70590079428F4E70EF81E491F561F6B
:1029A000C11D770F881F991F661F0694A1F7059018
:1029B000079428F4F80E491F561FC71FD11D880F12
:1029C000991F661F771F0694A1F70590079420F4BE
:1029D000490F561FC71FD81F990F661F771F881FE3
:1029E0000694A9F784911095177041F0D695C79574
:1029F00057954795F794E7941A95C1F7ECEBF0E0FB
:102A000068941590159135916591959105907FE2A7
:102A10007395E118F10A430B560BC90BD009C0F7A7
:102A2000E10CF11E431F561FC91FD01D7EF47033E9
:102A300011F48A95E6CFE894015030F0080F0AF4BB
:102A40000027021708F4202F2395022F7A3328F04D
:102A500079E37D932A95E9F710C07D932A9589F64D
:102A6000069497956795379517951794E118F10A8D
:102A7000430B560BC90BD00998F023957E917395A3
:102A80007A3308F070E37C932013B8F77E9170617D
:102A90007D9330F0839571E37D9370E32A95E1F7A0
:102AA0001124EF90FF900F911F91CF91DF91992703
:102AB00087FD90950895FB01DC018D9105908019AB
:102AC0000110D9F3990B0895FC01059061507040F5
:102AD0000110D8F7809590958E0F9F1F0895FB01E8
:102AE000DC014150504048F001900D920020C9F7A0
:102AF00001C01D9241505040E0F70895FC01615023
:102B0000704001900110D8F7809590958E0F9F1F0F
:102B100008957AE0979F902D879F802D910D112425
:102B200008950F931F93CF93DF93FB01238121FD22
:102B300003C08FEF9FEF2CC022FF16C04681578144
:102B4000248135814217530744F4A081B1819D014E
:102B50002F5F3F4F318320838C93268137812F5FF6
:102B60003F4F3783268314C08B01EC01FB010084A7
:102B7000F185E02D0995892BE1F6D80116968D9106
:102B80009C911797019617969C938E931697CE015A
:102B9000DF91CF911F910F910895AEE0B0E0E2ED8B
:102BA000F5E168CE0D891E898F89988D2EE02C83E2
:102BB0001A83098397FF02C080E090E801979E8303
:102BC0008D83AE01455E5F4F698D7A8DCE01019692
:102BD000E5DA4D815E8157FD0AC02F8138854217A5
:102BE00053070CF49A01F801E20FF31F10822E969E
:102BF000E4E05CCEFA01AA27283051F1203181F1BE
:102C0000E8946F936E7F6E5F7F4F8F4F9F4FAF4FF4
:102C1000B1E03ED0B4E03CD0670F781F891F9A1F07
:102C2000A11D680F791F8A1F911DA11D6A0F711DBB
:102C3000811D911DA11D20D009F468943F912AE0C7
:102C4000269F11243019305D3193DEF6CF010895AF
:102C5000462F4770405D4193B3E00FD0C9F7F6CFE0
:102C6000462F4F70405D4A3318F0495D31FD4052A8
:102C7000419302D0A9F7EACFB4E0A695979587953E
:102C800077956795BA95C9F700976105710508951D
:102C90009B01AC010A2E06945795479537952795C9
:102CA000BA95C9F7620F731F841F951FA01D089561
:102CB000A0E0B0E0EDE5F6E1D5CDEC016B016115EA
:102CC000710519F0FB01918380837E01FFEFEF1AFC
:102CD000FF0A0881802F90E030D1892B11F0E701A5
:102CE000F4CF0D3239F47E0182E0E80EF11C098147
:102CF00011E008C00B3229F47E0192E0E90EF11CCC
:102D0000098110E0E701219743E050E06EEB71E0AC
:102D1000CE011BD1892BB9F4239645E050E069EB35
:102D200071E0CE0112D1892B09F42596C114D1048A
:102D300019F0F601D183C0831111F2C060E070E098
:102D400080E89FE7F6C043E050E066EB71E0CE011B
:102D5000FCD0892B59F4C114D10409F4E6C0F2E087
:102D6000EF0EF11CF601F182E082DFC020E030E0DE
:102D7000A901C0E0D0E0F70180EDA82EA00E89E007
:102D80008A1528F1912F9260B92E812F887012FF39
:102D900004C0811123C0219621C081112197A5E093
:102DA000B0E015D1DC01CB01880F991FAA1FBB1F12
:102DB0009C01AD012A0D311D411D511D283989E9A4
:102DC0003807480789E1580748F0166006C09EEFAB
:102DD000A9120AC013FD40C01860B12E8FEFE81A87
:102DE000F80A00811B2DC7CF802F8F7D8534A1F578
:102DF00080818D3211F4106106C08B3221F0319642
:102E000061E070E004C08181329662E070E080533E
:102E10008A3018F0E61BF70B1FC060E070E06038E6
:102E20009CE079075CF4DB01AA0FBB1FAA0FBB1F54
:102E30006A0F7B1F660F771F680F711D3196DF01C8
:102E400011978C9180538A3050F314FF03C0719511
:102E500061957109C60FD71F11FF08C0C114D104B5
:102E600029F0CF010197F60191838083CA01B9014E
:102E700078D8212F2370233019F04B015C0106C054
:102E80004B015C01B7FAB094B7F8B09420E030E0A1
:102E9000A901C501B4010E94140F882309F43DC0A3
:102EA000D7FF06C0D195C195D10905ED11E002C04B
:102EB0000DEE11E06801F8E1CF1AD10890E2E92E99
:102EC000F12CCE15DF056CF0F80125913591459177
:102ED0005491C501B401FBD84B015C01CE19DF0947
:102EE000F0CF04501109F594E7940C151D0549F72E
:102EF0008A2D880F8B2D881F8F3F49F020E030E00E
:102F0000A901C501B4010E94140F811106C082E21B
:102F100090E09093800280937F02C501B40109C0C4
:102F200060E070E080E89FEF04C060E070E080EC5B
:102F30009FE7CDB7DEB7ECE0B1CC91111EC0803277
:102F400019F089508550D0F70895FB01DC014150FC
:102F5000504088F08D9181341CF08B350CF4805EEC
:102F6000659161341CF06B350CF4605E861B611159
:102F700071F3990B0895881BFCCF99278827089532
:102F8000DC01CB01FC01F999FECF06C0F2BDE1BD29
:102F9000F89A319600B40D9241505040B8F7089518
:102FA000DC01CB0102C02D9105D041505040D8F733
:102FB0000895262FF999FECF1FBA92BD81BD20BD7D
:102FC0000FB6F894FA9AF99A0FBE0196089509D0AF
:102FD000A59F900DB49F900DA49F800D911D11246D
:102FE0000895A29FB001B39FC001A39F700D811DE2
:102FF0001124911DB29F700D811D1124911D089502
:04300000F894FFCF72
:023004002000AA
:00000001FF
